{
  "abi": [
    {
      "inputs": [
        {
          "internalType": "address",
          "name": "_token",
          "type": "address"
        }
      ],
      "name": "TokenNotAllowed",
      "type": "error"
    },
    {
      "anonymous": false,
      "inputs": [
        {
          "indexed": false,
          "internalType": "address",
          "name": "token",
          "type": "address"
        },
        {
          "indexed": false,
          "internalType": "address",
          "name": "collateral",
          "type": "address"
        },
        {
          "indexed": false,
          "internalType": "uint256",
          "name": "tokenAmount",
          "type": "uint256"
        },
        {
          "indexed": false,
          "internalType": "uint256",
          "name": "CollateralAmount",
          "type": "uint256"
        }
      ],
      "name": "CreateRequest",
      "type": "event"
    },
    {
      "anonymous": false,
      "inputs": [
        {
          "indexed": true,
          "internalType": "address",
          "name": "previousOwner",
          "type": "address"
        },
        {
          "indexed": true,
          "internalType": "address",
          "name": "newOwner",
          "type": "address"
        }
      ],
      "name": "OwnershipTransferred",
      "type": "event"
    },
    {
      "anonymous": false,
      "inputs": [
        {
          "indexed": false,
          "internalType": "address",
          "name": "lender",
          "type": "address"
        },
        {
          "indexed": false,
          "internalType": "address",
          "name": "borrower",
          "type": "address"
        },
        {
          "indexed": false,
          "internalType": "uint256",
          "name": "amount",
          "type": "uint256"
        }
      ],
      "name": "lendout",
      "type": "event"
    },
    {
      "anonymous": false,
      "inputs": [
        {
          "indexed": false,
          "internalType": "address",
          "name": "liquidator",
          "type": "address"
        },
        {
          "indexed": false,
          "internalType": "address",
          "name": "liquidateFrom",
          "type": "address"
        },
        {
          "indexed": false,
          "internalType": "uint256",
          "name": "amount",
          "type": "uint256"
        }
      ],
      "name": "liquidateCollateral",
      "type": "event"
    },
    {
      "inputs": [
        {
          "internalType": "address",
          "name": "_token",
          "type": "address"
        },
        {
          "internalType": "address",
          "name": "_priceFeed",
          "type": "address"
        }
      ],
      "name": "allowCollateralToken",
      "outputs": [],
      "stateMutability": "nonpayable",
      "type": "function"
    },
    {
      "inputs": [
        {
          "internalType": "address",
          "name": "_token",
          "type": "address"
        },
        {
          "internalType": "address",
          "name": "_priceFeed",
          "type": "address"
        }
      ],
      "name": "allowToken",
      "outputs": [],
      "stateMutability": "nonpayable",
      "type": "function"
    },
    {
      "inputs": [
        {
          "internalType": "uint256",
          "name": "_duration",
          "type": "uint256"
        },
        {
          "internalType": "uint256",
          "name": "_tokenAmountToBorrow",
          "type": "uint256"
        },
        {
          "internalType": "uint256",
          "name": "_collateralAmount",
          "type": "uint256"
        },
        {
          "internalType": "address",
          "name": "_tokenAddressToBorrow",
          "type": "address"
        },
        {
          "internalType": "address",
          "name": "_tokenAddressForCollateral",
          "type": "address"
        },
        {
          "internalType": "uint256",
          "name": "_interest",
          "type": "uint256"
        }
      ],
      "name": "createRequest",
      "outputs": [],
      "stateMutability": "nonpayable",
      "type": "function"
    },
    {
      "inputs": [],
      "name": "getAllDashBoard",
      "outputs": [
        {
          "components": [
            {
              "internalType": "address",
              "name": "borrower",
              "type": "address"
            },
            {
              "internalType": "address",
              "name": "lender",
              "type": "address"
            },
            {
              "internalType": "uint256",
              "name": "tokenBorrowed",
              "type": "uint256"
            },
            {
              "internalType": "uint256",
              "name": "collateral",
              "type": "uint256"
            },
            {
              "internalType": "address",
              "name": "collateralAddressToken",
              "type": "address"
            },
            {
              "internalType": "address",
              "name": "tokenBorrowedAddress",
              "type": "address"
            },
            {
              "internalType": "uint256",
              "name": "_profit",
              "type": "uint256"
            }
          ],
          "internalType": "struct LendingV2.DashBoard[]",
          "name": "dash",
          "type": "tuple[]"
        }
      ],
      "stateMutability": "view",
      "type": "function"
    },
    {
      "inputs": [],
      "name": "getAllRequest",
      "outputs": [
        {
          "components": [
            {
              "internalType": "address",
              "name": "userRequest",
              "type": "address"
            },
            {
              "internalType": "address",
              "name": "lender",
              "type": "address"
            },
            {
              "internalType": "uint256",
              "name": "timestart",
              "type": "uint256"
            },
            {
              "internalType": "uint256",
              "name": "duration",
              "type": "uint256"
            },
            {
              "internalType": "uint256",
              "name": "tokenAmountToBorrow",
              "type": "uint256"
            },
            {
              "internalType": "uint256",
              "name": "collateralAmount",
              "type": "uint256"
            },
            {
              "internalType": "uint256",
              "name": "interest",
              "type": "uint256"
            },
            {
              "internalType": "address",
              "name": "tokenAddressToBorrow",
              "type": "address"
            },
            {
              "internalType": "address",
              "name": "tokenAddressForCollateral",
              "type": "address"
            },
            {
              "internalType": "bool",
              "name": "lended",
              "type": "bool"
            }
          ],
          "internalType": "struct LendingV2.Information[]",
          "name": "infos",
          "type": "tuple[]"
        }
      ],
      "stateMutability": "view",
      "type": "function"
    },
    {
      "inputs": [
        {
          "internalType": "address",
          "name": "_token",
          "type": "address"
        },
        {
          "internalType": "uint256",
          "name": "amount",
          "type": "uint256"
        }
      ],
      "name": "getCollateralTokenValue",
      "outputs": [
        {
          "internalType": "uint256",
          "name": "",
          "type": "uint256"
        }
      ],
      "stateMutability": "view",
      "type": "function"
    },
    {
      "inputs": [
        {
          "internalType": "address",
          "name": "_token",
          "type": "address"
        },
        {
          "internalType": "uint256",
          "name": "amount",
          "type": "uint256"
        }
      ],
      "name": "getTokenValue",
      "outputs": [
        {
          "internalType": "uint256",
          "name": "",
          "type": "uint256"
        }
      ],
      "stateMutability": "view",
      "type": "function"
    },
    {
      "inputs": [
        {
          "internalType": "address",
          "name": "_token",
          "type": "address"
        }
      ],
      "name": "isCollateralTokenListed",
      "outputs": [
        {
          "internalType": "bool",
          "name": "",
          "type": "bool"
        }
      ],
      "stateMutability": "view",
      "type": "function"
    },
    {
      "inputs": [
        {
          "internalType": "address",
          "name": "_token",
          "type": "address"
        }
      ],
      "name": "isTokenListed",
      "outputs": [
        {
          "internalType": "bool",
          "name": "",
          "type": "bool"
        }
      ],
      "stateMutability": "view",
      "type": "function"
    },
    {
      "inputs": [
        {
          "internalType": "uint256",
          "name": "",
          "type": "uint256"
        }
      ],
      "name": "l_allowedCollateralTokens",
      "outputs": [
        {
          "internalType": "address",
          "name": "",
          "type": "address"
        }
      ],
      "stateMutability": "view",
      "type": "function"
    },
    {
      "inputs": [
        {
          "internalType": "uint256",
          "name": "",
          "type": "uint256"
        }
      ],
      "name": "l_allowedTokens",
      "outputs": [
        {
          "internalType": "address",
          "name": "",
          "type": "address"
        }
      ],
      "stateMutability": "view",
      "type": "function"
    },
    {
      "inputs": [
        {
          "internalType": "address",
          "name": "",
          "type": "address"
        },
        {
          "internalType": "address",
          "name": "",
          "type": "address"
        }
      ],
      "name": "l_collateraldeposit",
      "outputs": [
        {
          "internalType": "uint256",
          "name": "",
          "type": "uint256"
        }
      ],
      "stateMutability": "view",
      "type": "function"
    },
    {
      "inputs": [
        {
          "internalType": "uint256",
          "name": "",
          "type": "uint256"
        }
      ],
      "name": "l_createRequest",
      "outputs": [
        {
          "internalType": "address",
          "name": "userRequest",
          "type": "address"
        },
        {
          "internalType": "address",
          "name": "lender",
          "type": "address"
        },
        {
          "internalType": "uint256",
          "name": "timestart",
          "type": "uint256"
        },
        {
          "internalType": "uint256",
          "name": "duration",
          "type": "uint256"
        },
        {
          "internalType": "uint256",
          "name": "tokenAmountToBorrow",
          "type": "uint256"
        },
        {
          "internalType": "uint256",
          "name": "collateralAmount",
          "type": "uint256"
        },
        {
          "internalType": "uint256",
          "name": "interest",
          "type": "uint256"
        },
        {
          "internalType": "address",
          "name": "tokenAddressToBorrow",
          "type": "address"
        },
        {
          "internalType": "address",
          "name": "tokenAddressForCollateral",
          "type": "address"
        },
        {
          "internalType": "bool",
          "name": "lended",
          "type": "bool"
        }
      ],
      "stateMutability": "view",
      "type": "function"
    },
    {
      "inputs": [
        {
          "internalType": "uint256",
          "name": "",
          "type": "uint256"
        }
      ],
      "name": "l_myDashBoard",
      "outputs": [
        {
          "internalType": "address",
          "name": "borrower",
          "type": "address"
        },
        {
          "internalType": "address",
          "name": "lender",
          "type": "address"
        },
        {
          "internalType": "uint256",
          "name": "tokenBorrowed",
          "type": "uint256"
        },
        {
          "internalType": "uint256",
          "name": "collateral",
          "type": "uint256"
        },
        {
          "internalType": "address",
          "name": "collateralAddressToken",
          "type": "address"
        },
        {
          "internalType": "address",
          "name": "tokenBorrowedAddress",
          "type": "address"
        },
        {
          "internalType": "uint256",
          "name": "_profit",
          "type": "uint256"
        }
      ],
      "stateMutability": "view",
      "type": "function"
    },
    {
      "inputs": [
        {
          "internalType": "address",
          "name": "",
          "type": "address"
        },
        {
          "internalType": "address",
          "name": "",
          "type": "address"
        }
      ],
      "name": "l_tokenBorrow",
      "outputs": [
        {
          "internalType": "uint256",
          "name": "",
          "type": "uint256"
        }
      ],
      "stateMutability": "view",
      "type": "function"
    },
    {
      "inputs": [
        {
          "internalType": "address",
          "name": "",
          "type": "address"
        }
      ],
      "name": "l_tokenCollateralPriceFeed",
      "outputs": [
        {
          "internalType": "address",
          "name": "",
          "type": "address"
        }
      ],
      "stateMutability": "view",
      "type": "function"
    },
    {
      "inputs": [
        {
          "internalType": "address",
          "name": "",
          "type": "address"
        },
        {
          "internalType": "address",
          "name": "",
          "type": "address"
        }
      ],
      "name": "l_tokenDeposit",
      "outputs": [
        {
          "internalType": "uint256",
          "name": "",
          "type": "uint256"
        }
      ],
      "stateMutability": "view",
      "type": "function"
    },
    {
      "inputs": [
        {
          "internalType": "address",
          "name": "",
          "type": "address"
        }
      ],
      "name": "l_tokenPriceFeed",
      "outputs": [
        {
          "internalType": "address",
          "name": "",
          "type": "address"
        }
      ],
      "stateMutability": "view",
      "type": "function"
    },
    {
      "inputs": [
        {
          "internalType": "uint256",
          "name": "_index",
          "type": "uint256"
        }
      ],
      "name": "lend",
      "outputs": [],
      "stateMutability": "nonpayable",
      "type": "function"
    },
    {
      "inputs": [
        {
          "internalType": "uint256",
          "name": "_index",
          "type": "uint256"
        }
      ],
      "name": "liquidate",
      "outputs": [],
      "stateMutability": "nonpayable",
      "type": "function"
    },
    {
      "inputs": [],
      "name": "owner",
      "outputs": [
        {
          "internalType": "address",
          "name": "",
          "type": "address"
        }
      ],
      "stateMutability": "view",
      "type": "function"
    },
    {
      "inputs": [],
      "name": "renounceOwnership",
      "outputs": [],
      "stateMutability": "nonpayable",
      "type": "function"
    },
    {
      "inputs": [
        {
          "internalType": "uint256",
          "name": "_index",
          "type": "uint256"
        }
      ],
      "name": "repay",
      "outputs": [],
      "stateMutability": "nonpayable",
      "type": "function"
    },
    {
      "inputs": [
        {
          "internalType": "address",
          "name": "newOwner",
          "type": "address"
        }
      ],
      "name": "transferOwnership",
      "outputs": [],
      "stateMutability": "nonpayable",
      "type": "function"
    }
  ],
  "bytecode": {
    "object": "0x608060405234801561001057600080fd5b5061001a33610023565b60018055610073565b600080546001600160a01b038381166001600160a01b0319831681178455604051919092169283917f8be0079c531659141344cd1fd0a4f28419497f9722a3daafe3b4186f6b6457e09190a35050565b611a19806100826000396000f3fe608060405234801561001057600080fd5b50600436106101585760003560e01c8063715018a6116100c3578063ab1d5bab1161007c578063ab1d5bab14610479578063ca68867b146104a4578063cb100a2c146104b7578063e69ec653146104cc578063f2fde38b146104df578063fddd27db146104f257600080fd5b8063715018a6146103e45780637ab4ccad146103ec57806381337681146104175780638bf9fbb1146104425780638da5cb5b14610455578063a6aa57ce1461046657600080fd5b8063415f124011610115578063415f12401461028b57806346be314f1461029e578063481da375146102c1578063545569ba1461039357806363037f16146103a85780636d34cd17146103d157600080fd5b806321fcbf571461015d57806328b1798a1461017257806336bcfa5314610198578063371fd8e6146101c35780633f979699146101d657806340210cb5146101e9575b600080fd5b61017061016b366004611687565b61051b565b005b6101856101803660046116ba565b61058c565b6040519081526020015b60405180910390f35b6101ab6101a63660046116e4565b610629565b6040516001600160a01b03909116815260200161018f565b6101706101d13660046116e4565b610653565b6101ab6101e43660046116e4565b610801565b6102456101f73660046116e4565b600d6020526000908152604090208054600182015460028301546003840154600485015460058601546006909601546001600160a01b03958616969486169593949293918216929091169087565b604080516001600160a01b039889168152968816602088015286019490945260608501929092528416608084015290921660a082015260c081019190915260e00161018f565b6101706102993660046116e4565b610811565b6102b16102ac3660046116fd565b6109cb565b604051901515815260200161018f565b6103356102cf3660046116e4565b600b602052600090815260409020805460018201546002830154600384015460048501546005860154600687015460078801546008909801546001600160a01b03978816989688169795969495939492939192821691811690600160a01b900460ff168a565b604080516001600160a01b039b8c168152998b1660208b01528901979097526060880195909552608087019390935260a086019190915260c0850152841660e08401529092166101008201529015156101208201526101400161018f565b61039b610a32565b60405161018f9190611718565b6101ab6103b63660046116fd565b6002602052600090815260409020546001600160a01b031681565b6101856103df3660046116ba565b610c1d565b610170610c79565b6101856103fa366004611687565b600760209081526000928352604080842090915290825290205481565b610185610425366004611687565b600960209081526000928352604080842090915290825290205481565b6101706104503660046117cf565b610c8d565b6000546001600160a01b03166101ab565b6101706104743660046116e4565b610f84565b610185610487366004611687565b600860209081526000928352604080842090915290825290205481565b6101706104b2366004611687565b61126c565b6104bf6112dd565b60405161018f9190611827565b6102b16104da3660046116fd565b611481565b6101706104ed3660046116fd565b6114df565b6101ab6105003660046116fd565b6003602052600090815260409020546001600160a01b031681565b610523611555565b6001600160a01b0391821660008181526002602052604081208054949093166001600160a01b0319948516179092556004805460018101825592527f8a35acfbc15ff81a39ae7d344fd709f28e8600b4aa8c65c6b64bfe7fe36bd19b9091018054909216179055565b6001600160a01b03808316600090815260036020526040808220548151633fabe5a360e21b81529151929316918391839163feaf968c9160048082019260a0929091908290030181865afa1580156105e8573d6000803e3d6000fd5b505050506040513d601f19601f8201168201806040525081019061060c91906118c8565b505050915050808461061e919061192e565b925050505b92915050565b6005818154811061063957600080fd5b6000918252602090912001546001600160a01b0316905081565b6000818152600b60205260408120600681015460048201549192916106789190611945565b60018301549091506001600160a01b03166106c95760405162461bcd60e51b815260206004820152600c60248201526b6e756c6c206164647265737360a01b60448201526064015b60405180910390fd5b600782015460018301546040516323b872dd60e01b81526001600160a01b03928316926323b872dd92610706923392909116908690600401611958565b6020604051808303816000875af1158015610725573d6000803e3d6000fd5b505050506040513d601f19601f82011682018060405250810190610749919061197c565b5060048281015433600090815260096020908152604080832060078801546001600160a01b039081168552925291829020805493909303909255600885015485546005870154925163a9059cbb60e01b8152908416948101949094526024840191909152169063a9059cbb906044016020604051808303816000875af11580156107d7573d6000803e3d6000fd5b505050506040513d601f19601f820116820180604052508101906107fb919061197c565b50505050565b6004818154811061063957600080fd5b6000818152600b60205260409020600101546001600160a01b0316331461087a5760405162461bcd60e51b815260206004820152601d60248201527f6f6e6c7920746865206c656e6465722063616e206c697175696461746500000060448201526064016106c0565b6000818152600b602052604090206003015442116108da5760405162461bcd60e51b815260206004820181905260248201527f63616e206c6971756964617465206f6e20657870697265206475726174696f6e60448201526064016106c0565b6000818152600b60205260409081902060088101546001820154600590920154925163a9059cbb60e01b81526001600160a01b0392831660048201526024810193909352169063a9059cbb906044016020604051808303816000875af1158015610948573d6000803e3d6000fd5b505050506040513d601f19601f8201168201806040525081019061096c919061197c565b506000818152600b602052604090819020805460059091015491517e953724b3ec8b8585a4b149a663f0556e743986da6e4214f058c3364b743f16926109c09233926001600160a01b039091169190611958565b60405180910390a150565b6000805b600554811015610a2957826001600160a01b0316600582815481106109f6576109f661199e565b6000918252602090912001546001600160a01b031603610a195750600192915050565b610a22816119b4565b90506109cf565b50600092915050565b60606000805b600a54811015610a84576000818152600b6020526040812060080154600160a01b900460ff1615159003610a7457610a718260016115af565b91505b610a7d816119b4565b9050610a38565b50600a5467ffffffffffffffff811115610aa057610aa06119cd565b604051908082528060200260200182016040528015610b1f57816020015b604080516101408101825260008082526020808301829052928201819052606082018190526080820181905260a0820181905260c0820181905260e0820181905261010082018190526101208201528252600019909201910181610abe5790505b50915060005b81811015610c18576000818152600b6020526040812060080154600160a01b900460ff1615159003610c08576000818152600b602090815260409182902082516101408101845281546001600160a01b03908116825260018301548116938201939093526002820154938101939093526003810154606084015260048101546080840152600581015460a0840152600681015460c08401526007810154821660e084015260080154908116610100830152600160a01b900460ff1615156101208201528351849083908110610bfc57610bfc61199e565b60200260200101819052505b610c11816119b4565b9050610b25565b505090565b6001600160a01b03808316600090815260026020526040808220548151633fabe5a360e21b81529151929316918391839163feaf968c9160048082019260a0929091908290030181865afa1580156105e8573d6000803e3d6000fd5b610c81611555565b610c8b60006115c2565b565b610c95611612565b610c9e83611481565b15156001148015610cb35750610cb3826109cb565b610cf35760405162461bcd60e51b81526020600482015260116024820152701d1bdad95b881b9bdd08185b1b1bddd959607a1b60448201526064016106c0565b610cfd8386610c1d565b610d07838661058c565b11610d495760405162461bcd60e51b8152602060048201526012602482015271636f6c6c61746572616c206973206c65737360701b60448201526064016106c0565b600a5460408051610140810182523381526000602082015242918101829052906060820190610d78908a611945565b81526020808201899052604080830189905260608084018790526001600160a01b03808a1660808087019190915289821660a0808801829052600060c09889018190528a8152600b8852869020895181549086166001600160a01b0319918216178255978a0151600182018054918716918a169190911790558987015160028201559489015160038601559188015160048086019190915591880151600585015595870151600684015560e0870151600784018054918416919096161790945561010086015160089092018054610120909701511515600160a01b026001600160a81b031990971692909116919091179490941790935591516323b872dd60e01b815290916323b872dd91610e9391339130918b9101611958565b6020604051808303816000875af1158015610eb2573d6000803e3d6000fd5b505050506040513d601f19601f82011682018060405250810190610ed6919061197c565b503360009081526009602090815260408083206001600160a01b038716845290915281208054879290610f0a908490611945565b9091555050600a54610f1d9060016115af565b600a55604080516001600160a01b03808716825285166020820152908101879052606081018690527f3108cfb688bceda7d54bcd967dc13b27211a9354e686be9d68e7a3367c2030469060800160405180910390a150610f7c60018055565b505050505050565b610f8c611612565b6000818152600b6020526040908190206007810154815460048084015494516323b872dd60e01b815293946001600160a01b03938416946323b872dd94610fd99433949116929101611958565b6020604051808303816000875af1158015610ff8573d6000803e3d6000fd5b505050506040513d601f19601f8201168201806040525081019061101c919061197c565b50338160010160006101000a8154816001600160a01b0302191690836001600160a01b0316021790555060018160080160146101000a81548160ff0219169083151502179055506000600c5490506040518060e001604052808360000160009054906101000a90046001600160a01b03166001600160a01b03168152602001336001600160a01b0316815260200183600401548152602001836005015481526020018360080160009054906101000a90046001600160a01b03166001600160a01b031681526020018360070160009054906101000a90046001600160a01b03166001600160a01b031681526020018360060154815250600d600083815260200190815260200160002060008201518160000160006101000a8154816001600160a01b0302191690836001600160a01b0316021790555060208201518160010160006101000a8154816001600160a01b0302191690836001600160a01b03160217905550604082015181600201556060820151816003015560808201518160040160006101000a8154816001600160a01b0302191690836001600160a01b0316021790555060a08201518160050160006101000a8154816001600160a01b0302191690836001600160a01b0316021790555060c082015181600601559050506112106001600c546115af90919063ffffffff16565b600c55815460048301546040517f31d8539ea751f59ed6783ed90280f8d45d49e895c0e40f07d81f1a991aa924a7926112569233926001600160a01b0390921691611958565b60405180910390a1505061126960018055565b50565b611274611555565b6001600160a01b0391821660008181526003602052604081208054949093166001600160a01b0319948516179092556005805460018101825592527f036b6384b5eca791c62761152d0c79bb0604c104a5fb6f4eb0703f3154bb3db09091018054909216179055565b60606000805b600c5481101561132e576000818152600d6020526040902060010154336001600160a01b039091160361131e5761131b8260016115af565b91505b611327816119b4565b90506112e3565b50600c5467ffffffffffffffff81111561134a5761134a6119cd565b6040519080825280602002602001820160405280156113b157816020015b6040805160e08101825260008082526020808301829052928201819052606082018190526080820181905260a0820181905260c082015282526000199092019101816113685790505b50915060005b81811015610c18576000818152600d6020526040902060010154336001600160a01b0390911603611471576000818152600d6020908152604091829020825160e08101845281546001600160a01b039081168252600183015481169382019390935260028201549381019390935260038101546060840152600481015482166080840152600581015490911660a08301526006015460c082015283518490839081106114655761146561199e565b60200260200101819052505b61147a816119b4565b90506113b7565b6000805b600454811015610a2957826001600160a01b0316600482815481106114ac576114ac61199e565b6000918252602090912001546001600160a01b0316036114cf5750600192915050565b6114d8816119b4565b9050611485565b6114e7611555565b6001600160a01b03811661154c5760405162461bcd60e51b815260206004820152602660248201527f4f776e61626c653a206e6577206f776e657220697320746865207a65726f206160448201526564647265737360d01b60648201526084016106c0565b611269816115c2565b6000546001600160a01b03163314610c8b5760405162461bcd60e51b815260206004820181905260248201527f4f776e61626c653a2063616c6c6572206973206e6f7420746865206f776e657260448201526064016106c0565b60006115bb8284611945565b9392505050565b600080546001600160a01b038381166001600160a01b0319831681178455604051919092169283917f8be0079c531659141344cd1fd0a4f28419497f9722a3daafe3b4186f6b6457e09190a35050565b6002600154036116645760405162461bcd60e51b815260206004820152601f60248201527f5265656e7472616e637947756172643a207265656e7472616e742063616c6c0060448201526064016106c0565b6002600155565b80356001600160a01b038116811461168257600080fd5b919050565b6000806040838503121561169a57600080fd5b6116a38361166b565b91506116b16020840161166b565b90509250929050565b600080604083850312156116cd57600080fd5b6116d68361166b565b946020939093013593505050565b6000602082840312156116f657600080fd5b5035919050565b60006020828403121561170f57600080fd5b6115bb8261166b565b602080825282518282018190526000919060409081850190868401855b828110156117c257815180516001600160a01b039081168652878201518116888701528682015187870152606080830151908701526080808301519087015260a0808301519087015260c0808301519087015260e0808301518216908701526101008083015190911690860152610120908101511515908501526101409093019290850190600101611735565b5091979650505050505050565b60008060008060008060c087890312156117e857600080fd5b8635955060208701359450604087013593506118066060880161166b565b92506118146080880161166b565b915060a087013590509295509295509295565b602080825282518282018190526000919060409081850190868401855b828110156117c257815180516001600160a01b0390811686528782015181168887015286820151878701526060808301519087015260808083015182169087015260a0808301519091169086015260c0908101519085015260e09093019290850190600101611844565b805169ffffffffffffffffffff8116811461168257600080fd5b600080600080600060a086880312156118e057600080fd5b6118e9866118ae565b945060208601519350604086015192506060860151915061190c608087016118ae565b90509295509295909350565b634e487b7160e01b600052601160045260246000fd5b808202811582820484141761062357610623611918565b8082018082111561062357610623611918565b6001600160a01b039384168152919092166020820152604081019190915260600190565b60006020828403121561198e57600080fd5b815180151581146115bb57600080fd5b634e487b7160e01b600052603260045260246000fd5b6000600182016119c6576119c6611918565b5060010190565b634e487b7160e01b600052604160045260246000fdfea26469706673582212205836e5db92b6daca6b4e590923e8771ca9dda94cc4c97f2fd10936d26b98d1bb64736f6c63430008130033",
    "linkReferences": {}
  },
  "methodIdentifiers": {
    "allowCollateralToken(address,address)": "ca68867b",
    "allowToken(address,address)": "21fcbf57",
    "createRequest(uint256,uint256,uint256,address,address,uint256)": "8bf9fbb1",
    "getAllDashBoard()": "cb100a2c",
    "getAllRequest()": "545569ba",
    "getCollateralTokenValue(address,uint256)": "28b1798a",
    "getTokenValue(address,uint256)": "6d34cd17",
    "isCollateralTokenListed(address)": "46be314f",
    "isTokenListed(address)": "e69ec653",
    "l_allowedCollateralTokens(uint256)": "36bcfa53",
    "l_allowedTokens(uint256)": "3f979699",
    "l_collateraldeposit(address,address)": "81337681",
    "l_createRequest(uint256)": "481da375",
    "l_myDashBoard(uint256)": "40210cb5",
    "l_tokenBorrow(address,address)": "7ab4ccad",
    "l_tokenCollateralPriceFeed(address)": "fddd27db",
    "l_tokenDeposit(address,address)": "ab1d5bab",
    "l_tokenPriceFeed(address)": "63037f16",
    "lend(uint256)": "a6aa57ce",
    "liquidate(uint256)": "415f1240",
    "owner()": "8da5cb5b",
    "renounceOwnership()": "715018a6",
    "repay(uint256)": "371fd8e6",
    "transferOwnership(address)": "f2fde38b"
  },
  "id": 26
}